{
  "contractName": "DistanceTokens",
  "abi": [
    {
      "inputs": [],
      "payable": false,
      "stateMutability": "nonpayable",
      "type": "constructor"
    },
    {
      "constant": false,
      "inputs": [
        {
          "name": "distance",
          "type": "int256"
        }
      ],
      "name": "addToBalance",
      "outputs": [],
      "payable": false,
      "stateMutability": "nonpayable",
      "type": "function"
    }
  ],
  "bytecode": "0x608060405234801561001057600080fd5b50336000806101000a81548173ffffffffffffffffffffffffffffffffffffffff021916908373ffffffffffffffffffffffffffffffffffffffff16021790555060938061005f6000396000f3fe6080604052348015600f57600080fd5b506004361060285760003560e01c8063afcd088114602d575b600080fd5b605660048036036020811015604157600080fd5b81019080803590602001909291905050506058565b005b60008113606457600080fd5b5056fea165627a7a72305820b141671b86b9d64aefbc02183cfed7620f81d9111e0ece6d3c13386bc075e7f10029",
  "source": "pragma solidity ^0.5.0;\n\ncontract DistanceTokens{\n\n    address owner;\n\n    struct User {\n        uint todayDistance;\n        uint distanceBalance;\n    }\n\n    constructor() public{\n        owner = msg.sender;\n    }\n\n    modifier requireOwner(){\n        require(owner == msg.sender, \"Sender not authorized\");\n        _; // represents the functions that will be executed after the above test is passed\n    }\n\n    mapping(address => User) userDetails;\n\n    function addToBalance(int distance) public{\n        require(distance > 0);\n        //  user = userDetails[msg.sender];\n        // user.todayDistance = 0;\n    }\n}",
  "sourcePath": "/Users/khanghou/Documents/VSCodeProjects/fyp-lunchmar/contracts/Distance.sol",
  "compiler": {
    "name": "solc",
    "version": "0.5.8+commit.23d335f2.Emscripten.clang"
  },
  "schemaVersion": "3.0.11",
  "updatedAt": "2019-07-06T05:10:16.320Z",
  "devdoc": {
    "methods": {}
  },
  "userdoc": {
    "methods": {}
  }
}