{
  "contractName": "User",
  "abi": [
    {
      "constant": true,
      "inputs": [
        {
          "name": "",
          "type": "uint256"
        }
      ],
      "name": "coupons",
      "outputs": [
        {
          "name": "id",
          "type": "uint256"
        },
        {
          "name": "name",
          "type": "string"
        }
      ],
      "payable": false,
      "stateMutability": "view",
      "type": "function"
    },
    {
      "constant": true,
      "inputs": [],
      "name": "distance",
      "outputs": [
        {
          "name": "",
          "type": "uint256"
        }
      ],
      "payable": false,
      "stateMutability": "view",
      "type": "function"
    },
    {
      "inputs": [],
      "payable": false,
      "stateMutability": "nonpayable",
      "type": "constructor"
    },
    {
      "constant": true,
      "inputs": [],
      "name": "test",
      "outputs": [
        {
          "name": "",
          "type": "string"
        }
      ],
      "payable": false,
      "stateMutability": "pure",
      "type": "function"
    },
    {
      "constant": false,
      "inputs": [
        {
          "name": "_distance",
          "type": "uint256"
        }
      ],
      "name": "addDistance",
      "outputs": [],
      "payable": false,
      "stateMutability": "nonpayable",
      "type": "function"
    },
    {
      "constant": false,
      "inputs": [
        {
          "name": "_distance",
          "type": "uint256"
        }
      ],
      "name": "subtractDistance",
      "outputs": [],
      "payable": false,
      "stateMutability": "nonpayable",
      "type": "function"
    },
    {
      "constant": false,
      "inputs": [
        {
          "name": "_distanceToSubtract",
          "type": "uint256"
        }
      ],
      "name": "claimReward",
      "outputs": [],
      "payable": false,
      "stateMutability": "nonpayable",
      "type": "function"
    }
  ],
  "bytecode": "0x6080604052603260005534801561001557600080fd5b5033600160006101000a81548173ffffffffffffffffffffffffffffffffffffffff021916908373ffffffffffffffffffffffffffffffffffffffff16021790555061041b806100666000396000f3fe608060405234801561001057600080fd5b50600436106100625760003560e01c806330828e92146100675780634851375c1461011557806373fd78c414610133578063ae169a5014610161578063b38951a31461018f578063f8a8fd6d146101bd575b600080fd5b6100936004803603602081101561007d57600080fd5b8101908080359060200190929190505050610240565b6040518083815260200180602001828103825283818151815260200191508051906020019080838360005b838110156100d95780820151818401526020810190506100be565b50505050905090810190601f1680156101065780820380516001836020036101000a031916815260200191505b50935050505060405180910390f35b61011d6102fc565b6040518082815260200191505060405180910390f35b61015f6004803603602081101561014957600080fd5b8101908080359060200190929190505050610302565b005b61018d6004803603602081101561017757600080fd5b8101908080359060200190929190505050610314565b005b6101bb600480360360208110156101a557600080fd5b81019080803590602001909291905050506103a0565b005b6101c56103b2565b6040518080602001828103825283818151815260200191508051906020019080838360005b838110156102055780820151818401526020810190506101ea565b50505050905090810190601f1680156102325780820380516001836020036101000a031916815260200191505b509250505060405180910390f35b6002602052806000526040600020600091509050806000015490806001018054600181600116156101000203166002900480601f0160208091040260200160405190810160405280929190818152602001828054600181600116156101000203166002900480156102f25780601f106102c7576101008083540402835291602001916102f2565b820191906000526020600020905b8154815290600101906020018083116102d557829003601f168201915b5050505050905082565b60005481565b80600080828254019250508190555050565b8080600054101561038d576040517f08c379a00000000000000000000000000000000000000000000000000000000081526004018080602001828103825260158152602001807f496e73756666696369656e742064697374616e6365000000000000000000000081525060200191505060405180910390fd5b8160008082825403925050819055505050565b80600080828254039250508190555050565b60606040518060400160405280600e81526020017f74657374696e6720737472696e6700000000000000000000000000000000000081525090509056fea165627a7a72305820303e3076e3caf06f9c0ea3808cbad489c0f5ca69962275c7b97ffc5db157a2d90029",
  "source": "pragma solidity ^0.5.0;\n\ncontract User {\n    uint public distance = 50;\n    address owner;\n\n    struct Coupon {\n        uint id;\n        string name;\n\n    }\n\n    mapping (uint => Coupon) public coupons;\n\n    constructor() public{\n        owner = msg.sender;\n    }\n\n    modifier checkBalance(uint toSubtract){\n        require(distance >= toSubtract, \"Insufficient distance\");\n        _;\n    }\n\n    function test() public pure returns(string memory){\n        return \"testing string\";\n    }\n\n    function addDistance(uint _distance) public{\n        distance += _distance;\n    }\n\n    function subtractDistance(uint _distance) public {\n        distance -= _distance;\n    }\n\n    function claimReward(uint _distanceToSubtract) public checkBalance(_distanceToSubtract) {\n        distance -= _distanceToSubtract;\n\n    }\n}",
  "sourcePath": "/Users/khanghou/Documents/VSCodeProjects/fyp-lunchmar/contracts/User.sol",
  "compiler": {
    "name": "solc",
    "version": "0.5.8+commit.23d335f2.Emscripten.clang"
  },
  "schemaVersion": "3.0.11",
  "updatedAt": "2019-07-17T16:42:23.883Z",
  "devdoc": {
    "methods": {}
  },
  "userdoc": {
    "methods": {}
  }
}